:020000040800F2
:10000000981E0020010100080D1A0008DD180008E4
:10001000091A0008B50F0008C121000800000000FF
:10002000000000000000000000000000091C0008A3
:100030005911000800000000B91A0008491D000805
:100040001B0100081B0100081B0100081B01000820
:100050001B0100081B0100081B0100081B01000810
:100060001B0100081B0100081B0100081B01000800
:100070001B0100081B0100081B0100081B010008F0
:100080001B0100081B0100081B0100081B010008E0
:100090001B0100081B0100081B0100081B010008D0
:1000A0001B0100081B0100081B0100081B010008C0
:1000B0001B0100081B0100081B0100081B010008B0
:1000C0001B0100081B0100081B0100081B010008A0
:1000D0001B010008AD1D0008D11D00081B01000810
:1000E0001B0100081B0100081B010008DFF80CD0F1
:1000F00000F0CEFC00480047FF320008981E0020A8
:100100000648804706480047FEE7FEE7FEE7FEE7B1
:10011000FEE7FEE7FEE7FEE7FEE7FEE74D1D00080F
:10012000ED00000840EA01039B0703D009E008C97D
:10013000121F08C0042AFAD203E011F8013B00F8AC
:10014000013B521EF9D27047D2B201E000F8012BF8
:10015000491EFBD270470022F6E710B513460A4647
:1001600004461946FFF7F0FF204610BD421E12F864
:10017000013F002BFBD111F8013B02F8013B002BA2
:10018000F9D1704730B505462A460B4612F8010BE7
:1001900013F8014B08B1A042F8D01CB1002802D0DE
:1001A0006D1CF1E7284630BDCAB2401E10F8011F91
:1001B0008A4202D00029F9D100207047421C10F871
:1001C000011B0029FBD1801A704710B5002200E006
:1001D000521C835C8C5CA34201D1002BF8D1D8B2B5
:1001E000E1B2401A10BD034611F8012B00F8012BB3
:1001F000002AF9D118467047F0B480EA0102D40F02
:100200004200B2EB410F02D20246084611464A00B4
:1002100042D0C30DDDB2C1F3C752AD1A202D35DA7D
:10022000C1F3160141F4000204B15242C5F12006A7
:1002300002FA06F12A411044B3EBD05F23D0C4B1D7
:10024000012DA0EBC35009DCF0BC4FF0004202EAE4
:10025000C352DBB200F5000000F077BB400000F1B4
:10026000807000EBC350A0F1807040EAD17049006B
:1002700009E0490841EAC071A0EBC35000F5000055
:10028000400800EBC350F0BC00F056BB61420122B5
:1002900002EB4101001BF6E7F0BC704781F0004122
:1002A000AAE780F00040A7E780EA010210B502F05B
:1002B0000043400022D04A001FD0010E01EB126122
:1002C000C0F35600C2F3560240F4000042F40002AC
:1002D000A0FB022000047F39140400D0401C50EA27
:1002E000124001D44000491EC2B20C0604EBD010EB
:1002F000401C4008802A02D003E0002010BD20F0FE
:100300000100002900DA0020184310BD30B480EA53
:10031000010202F0004530F0004221F0004013D00D
:1003200090B1C30DD40DC2F31601C0F31600E41A48
:1003300041F4000140F400027D34914201D3641C79
:1003400000E04900002C02DA30BC002070474FF476
:1003500000000023914201D3891A034340084FEA69
:100360004101F7D151B1914202D14FF0004105E076
:1003700002D24FF0010101E06FF0010103EBC45024
:10038000284430BC00F0D8BA2DE9FE4F804681EAFF
:100390000300C00F0C46009021F0004123F00045FF
:1003A000B8EB0200A94105D24046214690461C46C2
:1003B0000B46024623F00040104347D0270DC7F3F9
:1003C0000A00C3F30A510290401A019040286BDAE8
:1003D000C3F3130040F4801B0098924620B1002321
:1003E000D2EB030A63EB0B0B01985946C0F14002B4
:1003F000504600F070FA06460D4650465946019A9E
:1004000000F088FA10EB08006141002487EA1152DD
:1004100084EAE7731A4340D0009A62B3019A012A32
:100420004FEA075215DC001B61EB02014FF000425E
:1004300002EA0752CDE90042001C41F58011324624
:100440002B4600F0BFFA03B0BDE8F08F40462146CE
:10045000F9E7001B61EB0201001C41F58013001855
:100460005B412018A2F5001747EB030140EAD57065
:10047000B6196D4111E06D084FEA360645EAC075C0
:100480004FEA0752001B61EB0201001C41F580118D
:1004900049084FEA30000019514132462B4603B05B
:1004A000BDE8F04F00F07FBA009801224000002321
:1004B000D0EB020263EBE073009821464FEAE07450
:1004C000B8EB000061EB0401E9E783F000435BE770
:1004D00081F0004158E72DE9FE4F81EA030404F062
:1004E000004421F0004100944FF0000B23F0004342
:1004F00050EA01045ED052EA03045BD0C3F30A540D
:10050000C1F30A552C44A4F2F3340194A0FB025425
:10051000C1F3130141F48011C3F3130343F48013B7
:1005200001FB024400FB034E840A970A44EA81540B
:1005300047EA8357A4FB076802958D0A05FB0785E8
:100540004FEA932C04FB0C542705029D4FEA0658F2
:1005500047EA1637B5EB08056EEB070C870E920ECF
:1005600047EA811742EA8312A7FB0201B6EB0B01AF
:1005700064EB00042B0D43EA0C335E1844EB1C5073
:10058000DA465146E7FB0201C5F313044FEA0B3389
:1005900043EA14534FEA0432019C43EA0603A4F1F0
:1005A0000C040294009CCDE900B400F00BFA03B0F7
:1005B000BDE8F08F00200146F9E72DE9F04D81EA12
:1005C000030404F0004B21F0004514464FF0000AEC
:1005D00023F0004150EA050220D054EA01021DD068
:1005E000C5F30A570246C5F31303C1F31300C1F361
:1005F0000A5640F4801543F48013A7EB0608101B3D
:10060000D64608F2FD3873EB050002D308F1010865
:1006100001E092185B41B8F1000F03DA00200146B7
:10062000BDE8F08D00204FF48011064684460EE0B0
:10063000171B73EB050705D3121B63EB050306437A
:100640004CEA010C49084FEA300092185B4150EA2D
:100650000107EDD152EA030012D082EA040083EAD6
:100660000501084305D0101BAB4106D2012200232F
:1006700006E000224FF0004302E06FF00102531049
:100680001AEB06004CEB085110EB0A0041EB0B0192
:10069000BDE8F04D00F087B9C10F80EAE070084472
:1006A000CA079623002100F050B996230022114674
:1006B00000F04BB90EB5C10F80EAE0700844CA07DC
:1006C000002140F233438DE80E000A460B4600F04D
:1006D00079F903B000BD0EB540F23341029100211B
:1006E000CDE900110A460B4600F06CF903B000BDDD
:1006F00020F00040C10DC0F3160040F400007F2937
:1007000001DA00207047962903DCC1F19601C84048
:10071000704796398840704770B5C1F30A5201F0AE
:1007200000450024C1F3130140F2FF3341F480116E
:100730009A4201DA002070BD40F233439A42A2F29D
:10074000334203DC524200F0D5F800E090402C43E5
:10075000F1D0404270BDC1F30A5210B5C1F313018C
:1007600040F2FF3341F480119A4201DA002010BDBB
:1007700040F233439A42A2F2334203DC524200F089
:10078000B9F810BD904010BD00F0004230F00040BC
:100790000AD0C10D01F56071C0F3160042EA0151A3
:1007A000C20840071143704700200146704700000F
:1007B00030B5041E71F1000404DB4FF000444042E8
:1007C00064EB0101141E73F1000405DB1C464FF0BD
:1007D0000043524263EB04038B4208BF824230BDA8
:1007E00030B5041E71F1000404DB4FF000444042B8
:1007F00064EB0101141E73F1000405DB1C464FF08D
:100800000043524263EB0403994208BF904230BD5B
:1008100001F0004330B421F0004150EA010206D05B
:100820000A0DA2F56072C1F31301002A02DC30BC8C
:1008300000207047440F44EAC104C100E01830BCF6
:1008400000EBC25000F078B830B50B4601460020EE
:100850002022012409E021FA02F59D4205D303FA82
:1008600002F5491B04FA02F52844151EA2F1010203
:10087000F1DC30BD2DE9F05F0546002092469B4635
:1008800088460646814640241BE0284641464746A6
:10089000224600F02FF853465A46C01A914110D311
:1008A00011461846224600F016F82D1A67EB01088B
:1008B0004F4622460120002100F00DF817EB0009F9
:1008C0004E41201EA4F10104DFDC484631462A4691
:1008D0004346BDE8F09F202A04DB203A00FA02F1EB
:1008E000002070479140C2F1200320FA03F319431E
:1008F00090407047202A04DB203A21FA02F00021C0
:10090000704721FA02F3D040C2F12002914008431F
:1009100019467047202A06DBCB17203A41FA02F02D
:1009200043EAE07306E041FA02F3D040C2F120024C
:1009300091400843194670470029A8BF7047401CE2
:10094000490008BF20F00100704710B4B0FA80FCE5
:1009500000FA0CF050EA010404BF10BC704749B122
:10096000CCF1200421FA04F411FA0CF118BF012192
:1009700021430843A3EB0C01CB1D4FEA00614FEA72
:10098000102042BF002010BC704700EBC350104441
:100990000029A4BF10BC7047401C490008BF20F0CC
:1009A000010010BC704710B5141E73F1000408DA82
:1009B000401C41F1000192185B411A4301D120F023
:1009C000010010BD2DE9F04D92469B4611B1B1FAE0
:1009D00081F202E0B0FA80F220329046FFF77BFF0E
:1009E00004460F4640EA0A0041EA0B0153465A46C4
:1009F000084313D0114653EA010019D0C8F1400250
:100A00005046FFF777FF05460E4650465946424688
:100A1000FFF761FF084305D0012004E02046394676
:100A2000BDE8F08D0020054346EAE0762C433743CD
:100A30000A986305E40AA0EB08000022FD0A44EAD4
:100A400047540A3002D500200146E9E70105101994
:100A50006941DDE9084500196941BDE8F04DA2E7AB
:100A6000C1F30A52C1F3130140F2FF3341F4801184
:100A70009A4202DA00200146704740F233439A421C
:100A8000A2F2334202DC5242FFF734BFFFF723BF2A
:100A9000064C074D06E0E06840F0010394E80700CB
:100AA00098471034AC42F6D3FFF724FBD43F00083C
:100AB000F43F000821B1826842F00102826003E045
:100AC000826822F0010282607047000010B504467F
:100AD0001248844208D10121401501F01BF8002181
:100AE000601501F017F817E00D48844208D1012184
:100AF000001501F00FF80021201501F00BF80BE0B4
:100B00000848844208D10121C80301F003F80021FC
:100B10004FF4004000F0FEFF10BD00000024014033
:100B200000280140003C0140014600208A6802F094
:100B300004020AB1012000E0002070470146C86CA1
:100B400080B270470246002013680B400BB10120B1
:100B500000E000207047014600208A6802F0080289
:100B60000AB1012000E000207047000030B50246C5
:100B70000020002350680F4C20400D790C6844EA97
:100B800005242043506090680B4C2040D1E902546A
:100B90002C434D7944EA450420439060D06A20F408
:100BA00070000C7C641EE4B2234340EA0350D06220
:100BB00030BD0000FFFEF0FFFDF7F1FFF0B5044689
:100BC0000D4600200021092D11DDE068A5F10A067F
:100BD00006EB4607072606FA07F18843A5F10A0641
:100BE00006EB460603FA06F10843E0600CE02069D4
:100BF00005EB4507072606FA07F1884305EB45068E
:100C000003FA06F108432061072A0FDA606B561ECB
:100C100006EB86071F2606FA07F18843561E06EBE9
:100C2000860605FA06F10843606322E00D2A0FDA12
:100C3000206BD61F06EB86071F2606FA07F18843AE
:100C4000D61F06EB860605FA06F10843206310E07E
:100C5000E06AA2F10D0606EB86071F2606FA07F1E9
:100C60008843A2F10D0606EB860605FA06F1084355
:100C7000E062F0BD816841F008018160704721B1F8
:100C8000826842F4A002826003E0826822F4A0023B
:100C900082607047816841F0040181607047000004
:100CA00010B500F03DFB0BA001F0B6FA05E000F036
:100CB00037FB4FF47A7002F091F802F0D9F904464C
:100CC00009A1FFF782FA0028F1D008A001F0A4FAE8
:100CD00010BD00000D0AD5FDD4DAB3F5CABCBBAF18
:100CE0004750532E0D0A0000302E30000D0AD5FD5E
:100CF000D4DAB3F5CABCBBAFCDEAB1CF2E0D0A0032
:100D000070B50446204602F035FB0546294617A07B
:100D100001F082FA04E016A216A1002000F05EF8AD
:100D20004FF4FA73002217A119A000F017FA002857
:100D3000F1D00EE004E00EA20EA1002000F04EF86B
:100D40004FF4FA7300220FA111A000F007FA002857
:100D5000F1D02846FFF732FA06463146284600F021
:100D6000F7F80028E6D0012070BD000025730A00C6
:100D70003830000034372E3130312E3135382E32B4
:100D8000313800002B514953544154453A0000007A
:100D900041542B514953544154453F0010B586B03E
:100DA0000446224606A101A801F046FA4FF47A73E0
:100DB000002207A101A800F0D1F906B010BD000083
:100DC00041542B5149434C4F53453D25640000008D
:100DD000434C4F5345204F4B0000000070B5B8B056
:100DE00005460E46144664211FA8FFF7B4F915B155
:100DF000012D10D107E033460FA210A11FA80094C7
:100E000001F01AFA08E0334612A20CA11FA80094C0
:100E100001F012FA00E000BF00BF1FAA0EA101A856
:100E200001F00AFA4FF47A7300220FA101A800F032
:100E300095F938B070BD000054435000312C302C6F
:100E4000222573222C222573222C25732C302C3141
:100E5000000000005544500041542B51494F50456B
:100E60004E3D2573000000002B51494F50454E3A2E
:100E7000200000008EB000F033FD1CA21CA1002059
:100E8000FFF7ACFF10B11EA001F0C6F94FF4FA73E2
:100E900000221EA120A000F061F950B121A001F0B4
:100EA000BBF90020FFF77AFF30B122A001F0B4F9BE
:100EB00002E023A001F0B0F916E0684602F092F8D3
:100EC0001C22694607A8FFF72DF907A802F062F96E
:100ED00004462046FFF714FF204602F05BF800248A
:100EE00044F6206001F07AFFE7E7000038300000A8
:100EF00034372E3130312E3135382E323138000032
:100F0000C1ACBDD3B3C9B9A6000000002B514953F1
:100F1000544154453A00000041542B514953544127
:100F200054453F00D7B4CCACB2E9D1AFB3C9B9A6F0
:100F300000000000B9D8B1D5B3C9B9A600000000BF
:100F4000D7B4CCACB2E9D1AFCAA7B0DC0000000086
:100F500030B5ADF2244D05460C4622460CA10DF2EB
:100F6000044001F069F90DF204420EA10E4801F0AF
:100F7000A4F801A9284600F0BDFE4FF47A730022C0
:100F80000AA101A800F0EAF80DF2244D30BD0000DE
:100F900041542B514953454E4445583D302C25640E
:100FA0002C000000257300000044004053454E44CF
:100FB000204F4B0000BFFEE710B500241548006825
:100FC00020F07040134908600846006840F0004077
:100FD000086004E0601CC4B2012001F00CFF0E4860
:100FE000006808B1642CF5DB642C01DB012010BD26
:100FF000002404E0601CC4B2012001F0FCFE06489D
:10100000006808B9642CF5DB642C01DB0120EEE7F5
:101010000020ECE7000801401C01214210B50B48FC
:10102000806940F00400094988610948006820F09F
:101030007040074908600846006840F0405008606A
:1010400000F06AF8FFF7B8FF10BD00000010024082
:101050000008014010B5002404E0601CC4B2012067
:1010600001F0C9FE0D48006808B1642CF5DB0024CE
:1010700004E0601CC4B2012001F0BDFE0748006816
:1010800008B9642CF5DB282001F0B5FE03480068A0
:1010900008B1012010BD0020FCE700001C01214226
:1010A00070B50024002506E06006040EFFF7D2FFAD
:1010B0000443681CC5B2082DF6DB204670BD7CB524
:1010C00005460E4600F028F8FFF776FFF8B9002431
:1010D00005E0FFF7E5FF0DF80400601CC4B2052C25
:1010E000F7DB9DF800009DF8011008449DF8021000
:1010F00008449DF8031008449DF80410884208D164
:101100009DF8000030709DF80200287001E0012079
:101110007CBD0020FCE7000010B50C48006820F002
:1011200070400A4908600846006840F04050086076
:10113000002007490860142001F050FE01200549F5
:10114000C1F89C011E2001F056FE10BD00080140B0
:101150009C01214200002142704700002DE9F0412E
:1011600006460C4615461F462548B0F800046FF3A6
:101170000E002349A1F80004324622A1234800F0C2
:101180009CFF1CB915B90120BDE8F081B8B201F08F
:1011900025FE00201A49B1F80014C1F30E01184AC7
:1011A000505411461AA001F037F8B4B1ADB1214640
:1011B0001348FEF7E7FF08B1012000E0002040B926
:1011C00029460F48FEF7DEFF08B1012000E00020AD
:1011D00008B10120D8E70020D6E744B121460848ED
:1011E000FEF7D0FF08B10120CEE70020CCE729466A
:1011F0000348FEF7C7FF08B10120C5E70020C3E799
:101200001406002025730D0A000000000044004071
:101210002573000008B50121042000F06BFC0420B8
:10122000ADF8000010208DF8030003208DF80200B7
:101230006946074800F09CF80121042000F05AFCA0
:101240000820ADF800006946014800F091F808BD9B
:101250000008014010B5FFF7DDFF00F001F810BDF8
:1012600000B585B00121480400F034FC01210420C0
:1012700000F040FC0420ADF8100018208DF8130099
:1012800003208DF8120004A9194800F071F8082015
:10129000ADF8100004208DF8130004A9144800F0E4
:1012A00067F84FF4E13000900020ADF80400ADF88D
:1012B0000600ADF80800ADF80C000C20ADF80A00EF
:1012C00069460C4800F084FE012240F2255109488D
:1012D00000F059FE012240F22441064800F053FE7E
:1012E00000F00AF80121034800F0C2FD05B000BD7E
:1012F000000801400044004008B54FF4A06000F031
:10130000D1FB26208DF8000000208DF801008DF81B
:10131000020001208DF80300684600F08BFB08BD39
:1013200010B54FF4FA73002207A10AA0FFF716FFC9
:1013300038B94FF4FA73002209A10AA0FFF70EFF93
:1013400010BD0120FCE700002B51474E5353433A98
:101350002031000041542B51474E5353433F00006E
:101360004F4B000041542B51474E5353433D3100E6
:101370002DE9F0410246002500260020002300242C
:10138000002791F803C00CF00F0591F803C00CF092
:10139000100CBCF1000F03D091F802C04CEA050517
:1013A00091F800C0BCF1000F31D0146800202BE090
:1013B0004FF0010C0CFA00F3B1F800C00CEA030680
:1013C0009E4220D183004FF00F0C0CFA03F7BC4370
:1013D00005FA03FC4CEA040491F803C0BCF1280FA1
:1013E00006D14FF0010C0CFA00FCC2F814C00AE060
:1013F00091F803C0BCF1480F05D14FF0010C0CFA75
:1014000000FCC2F810C0401C0828D1D31460B1F809
:1014100000C0BCF1FF0F34DD546800202EE000F165
:10142000080C4FF0010808FA0CF3B1F800C00CEA00
:1014300003069E4221D183004FF00F0C0CFA03F7F4
:10144000BC4305FA03FC4CEA040491F803C0BCF168
:10145000280F05D100F1080C08FA0CF8C2F8148026
:1014600091F803C0BCF1480F07D100F1080C4FF010
:10147000010808FA0CF8C2F81080401C0828CED3E6
:101480005460BDE8F08100002DE9FE4F01212248A3
:10149000FFF7F5FB00BF02211F48FFF753FB0028B1
:1014A000F9D01D48FFF74AFB02900298FFF713F9A5
:1014B00080464FF06632194BFFF70DF806460022C2
:1014C000174BFFF77AF80446FFF7A2F98246504619
:1014D000FFF75AF906460022124BFEF7F6FF0446C4
:1014E000114A124BFFF769F80022114BCDE90001B8
:1014F000FEF7F1FF8046FFF72EF91FFA80FB5046FA
:10150000FFF742F9044622460B460AA000F084FE8B
:101510005846BDE8FE8F00000028014066660A407C
:101520000000B0400000E03F9A9999999999B93F1D
:1015300000006940B5E7D1B9D6B5CEAA3A256C66A8
:10154000560A00002DE9F04F91B0D4A3D3E9002151
:10155000D3E90203CDE90E03CDE90C21D3A1D44890
:10156000FEF710FE8146B9F1000F7DD0002406E0A1
:10157000A01C19F80010CF480155601CC4B2092CFA
:10158000F6DBCDA1CA48FEF7FDFD8146B9F1000F9B
:101590006BD0002407E0A01C19F80000C5490A39E7
:1015A0000855601CC4B20A2CF5DB002406E0C148D3
:1015B0000A38015D13300155601CC4B2032CF6DB00
:1015C000032408E0BB480A38025DE01EB9490E3129
:1015D0000A54601CC4B20A2CF4DBB6490A39897F6C
:1015E000A1F13000FFF758F88246B449FEF78EFEAD
:1015F000B0490A390690497FA1F13000FFF74CF855
:101600008346AF49FEF782FEAA490A390490097F52
:10161000A1F13000FFF740F88346AA49FEF776FEB5
:10162000A4490A390390C97EA1F13000FFF734F8CC
:10163000A5490090FEF76AFE83469E490A39497E15
:1016400030399C4A0A3A127E303A02EB820201EBB0
:101650004200FFF721F859460190FEF7CDFD0290B8
:101660000399FEF7C9FD01E013E114E182460499F4
:10167000FEF7C2FD05900699FEF7BEFD0790FFF745
:1016800083F807460022914BFEF797FFCDE90A0148
:1016900088490A39C97C303964225143854A0A3A5B
:1016A000127D303A02EB820201EB420281490A3993
:1016B000497D30395018FEF7FDFFCDE90801DDE91D
:1016C0000A23FEF761FE0546FFF7A2F879490A39B9
:1016D000C862002405E07748015D0C300155601CAC
:1016E000C4B2022CF7DB022407E07248025DA01EA0
:1016F000704915310A54601CC4B2092CF5DB6D49E0
:101700000A3991F82510A1F13000FEF7C5FF804697
:101710006A49FEF7FBFD67490A39049091F82410E5
:10172000A1F13000FEF7B8FF83466549FEF7EEFDF4
:10173000804660490A3991F82310A1F13000FEF784
:10174000ABFF60490290FEF7E1FD5A490A39039068
:1017500091F82210A1F13000FEF79EFF5A49009047
:10176000FEF7D4FD53490A39029091F82010303920
:10177000504A0A3AD27F303A02EB820201EB420031
:10178000FEF78AFF01900299FEF736FD8346039922
:10179000FEF732FD82464146FEF72EFD05460499CE
:1017A000FEF72AFD0590FEF7EFFF0022474BCDE93B
:1017B0000601FEF702FF06460F463E490A39C97D7B
:1017C00030393C4A0A3A927D303A02EB820201EB10
:1017D0004200FEF76FFF32463B46CDE90801FEF7B7
:1017E000D3FDCDE90A01FFF713F832490A398862BF
:1017F000C86AFEF77DFF0A90FEF757FF83462D4823
:101800000A38C16A5846FEF74CFD82463049FEF759
:101810004BFD8046FEF76CFF054626490A39C86A2B
:10182000FEF766FF064623490A39886AFEF760FF1D
:101830000A90FEF73AFF83461E480A38816A5846E6
:10184000FEF72FFD82462249FEF72EFD8046FEF769
:101850004FFF074617490A39886AFEF749FF3B469A
:1018600002460CA9CDE900650B901248263000F025
:10187000E3FC10482630FEF7A1FC05462A4615A1D8
:101880000C48663000F0D8FC0A48263011B0BDE89C
:10189000F08F11A0FAE710A0F8E7000025642E25CC
:1018A0003036642C25642E2530366400412C00002F
:1018B00014060020220A00204E2C000000401C4686
:1018C00000007A440000C8420000204100004E4061
:1018D0000024744925640000302E300000BFFEE76C
:1018E00010B500F0D1FA01F069F9FFF7D9F901F06C
:1018F00069F918B108A000F08FFC02E00DA000F01B
:101900008BFC00BFFFF78AFB0028FBD100F028F812
:101910000EA000F081FC10BD0D0A204243323020A1
:10192000C5E4D6C320B3C9B9A6A3A1A3A1A3A1208E
:101930002E0D0A000D0A204243323020C5E4D6C3E2
:10194000CAA7B0DC2E2E0D0A000000000D0A20CB25
:10195000F9D3D0B3F5CABCBBAFCDEAB1CF0D0A0005
:1019600000B587B0012140F2054000F0C3F84FF404
:10197000004000F0A3F82248FFF7A8F80220ADF8D5
:10198000180000208DF81B0003208DF81A0006A90E
:101990001C48FFF7EDFC002001908DF808008DF841
:1019A00009004FF4602003900020049001208DF87E
:1019B000140001A91248FFF7D9F8072301221146A4
:1019C0000F48FFF7FBF801210D48FFF773F80C48AB
:1019D000FFF750F900BF0A48FFF7BDF80028FAD119
:1019E0000748FFF757F900BF0548FFF79DF80028A3
:1019F000FAD101210248FFF742F907B000BD00000B
:101A0000002801400008014000BFFEE7704708B50C
:101A10004FF4A06000F046F825208DF8000001206A
:101A20008DF801008DF802008DF80300684600F083
:101A300001F808BD70B5002100230F22C47804B35B
:101A4000154C246804F4E064C4F5E064210AC1F193
:101A50000403CA40447804FA03F184781440214313
:101A600009010E4C0678A155047804F01F050124E5
:101A7000AC4005786D11AD0005F1E025C5F80041D9
:101A800009E0047804F01F050124AC40044D0678F9
:101A9000761145F8264070BD0CED00E000E400E052
:101AA00080E100E002490143024A116070470000F2
:101AB0000000FA050CED00E0704700000146002030
:101AC000034A506820F440400843506070470000CB
:101AD0000010024029B1064AD2690243044BDA6180
:101AE00004E0034AD2698243014BDA617047000087
:101AF0000010024029B1064A92690243044B9A61E0
:101B000004E0034A92698243014B9A6170470000E6
:101B10000010024029B1064AD2680243044BDA6041
:101B200004E0034AD2688243014BDA607047000048
:101B30000010024030B500210022002400232D4D6A
:101B40006D6805F00C0121B1042905D0082923D1C5
:101B500005E0294D056022E0274D05601FE0254D79
:101B60006D6805F47012234D6D6805F4803402250C
:101B700005EB92421CB9214D554305600BE01D4D0C
:101B80006D6805F400351DB11C4D5543056002E03C
:101B9000194D5543056002E0174D056000BF00BFB9
:101BA000144D6D6805F0F0010909154D6B5C056871
:101BB000DD4045600F4D6D6805F4E061090A104D88
:101BC0006B5C4568DD4085600A4D6D6805F46051C9
:101BD000C90A0B4D6B5C4568DD40C560054D6D68FD
:101BE00005F44041890B074D6B5CC568B5FBF3F507
:101BF000056130BD0010024000127A0000093D006E
:101C00000000002010000020704710B500F002F81E
:101C100010BD00000CB50020019000903348006812
:101C200040F480303149086000BF3048006800F45B
:101C3000003000900198401C0190009818B901985C
:101C4000B0F5A06FF1D12948006800F4003010B160
:101C50000120009001E0002000900098012843D16D
:101C60002348006840F010002149086008460068D9
:101C700020F0030008600846006840F00200086099
:101C80001A48406819494860084640684860084654
:101C9000406840F4806048600846406820F47C104A
:101CA00048600846406840F4E8104860084600680C
:101CB00040F08070086000BF0C48006800F00070C1
:101CC0000028F9D00948406820F00300074948601F
:101CD0000846406840F00200486000BF0348406882
:101CE00000F00C000828F9D10CBD000000100240E3
:101CF000002002402DE9F04105460C460027B84679
:101D0000002605B11CB94FF0FF30BDE8F081284630
:101D1000FEF754FA10B96FF00100F6E70EE02E78E6
:101D2000371106F00F08384600F04CFA2070641C9A
:101D3000404600F047FA2070641C6D1C287800288B
:101D4000EDD1207000BFE0E77047000010B51348E8
:101D5000006840F0010011490860084640681049D9
:101D600008400E494860084600680E4908400B4983
:101D700008600846006820F4802008600846406833
:101D800020F4FE0048604FF41F008860FFF73DFF1D
:101D90004FF000600449086010BD000000100240D0
:101DA0000000FFF8FFFFF6FE08ED00E010B540F27E
:101DB0002551064800F0BDF838B1044800F074F928
:101DC000C4B22146014800F074F910BD003801404A
:101DD00010B540F22551204800F0ABF8D8B11E48AC
:101DE00000F062F9C4B21D48B0F80004C0F30E0060
:101DF00040F2FF3188420EDA1849B1F80014C1F3FD
:101E00000E00411C154AB2F8002461F30E0213497A
:101E1000A1F800240C5440F224410F4800F089F846
:101E2000012817D10D48B0F8000420F4004000F557
:101E300000400A49A1F80004074800F035F9C4B28F
:101E400007A10648FEF79EF908B1012000E0002036
:101E50000649087010BD0000004400401406002030
:101E6000434C4F5345440D0A00000000140000206D
:101E700021B1828942F40052828104E082894DF6C8
:101E8000FF731A408281704700B585B0012104209C
:101E9000FFF730FE01218803FFF72CFE4FF400709E
:101EA000ADF8100018208DF8130003208DF81200F3
:101EB00004A91748FFF75CFA4FF48060ADF81000F2
:101EC00004208DF8130004A91148FFF751FA4FF4CC
:101ED000E13000900020ADF80400ADF80600ADF848
:101EE0000800ADF80C000C20ADF80A00694609485E
:101EF00000F06EF8FFF78BFD012240F225510548F6
:101F000000F041F801210348FFF7B2FF05B000BD22
:101F1000000801400038014002460020B1F5007F72
:101F200000D100BF13880B400BB1012000E000205E
:101F3000704770B50246002400230025002040F6BB
:101F40006A16B14200D100BFC1F3421501F01F0370
:101F5000012606FA03F3012D02D19689334006E0EB
:101F6000022D02D1168A334001E0968A33400C12CA
:101F7000012606FA04F41688344013B10CB101208E
:101F800000E0002070BDF0B50346002400260025C7
:101F9000002040F66A17B94200D100BF1846C1F3CD
:101FA000421401F01F06012707FA06F5012C01D1A2
:101FB0000C3004E0022C01D1103000E014301AB1D2
:101FC00007682F43076002E00768AF430760F0BD72
:101FD0002DE9F04786B005460E460024A24600BF14
:101FE000A1460027B08900B100BF2F462C8A4CF6CD
:101FF000FF700440F08804432C82AC894EF6F31045
:102000000440B08831890843718908430443AC8196
:10201000AC8A4FF6FF400440B0890443AC8201A86B
:10202000FFF788FD1F48874202D1DDF810A001E0CC
:10203000DDF80CA0A88900F4004040B10AEBCA000A
:1020400000EB0A1031684900B0FBF1F807E00AEB39
:10205000CA0000EB0A1031688900B0FBF1F8642077
:10206000B8FBF0F004012009642101FB1089A88964
:1020700000F4004040B1322000EBC900B0FBF1F0A9
:1020800000F00700044308E0322000EB091064214F
:10209000B0FBF1F000F00F0004432C8106B0BDE866
:1020A000F08700000038014001468888C0F308002E
:1020B0007047C1F30802828070470FB470B586B0D4
:1020C00006460CA8019073E00B9800785C281CD1A0
:1020D0000B98401C0B9000786E2809D072280FD105
:1020E0000D213046FFF7E5FF0B98401C0B900BE0ED
:1020F0000A213046FFF7DDFF0B98401C0B9003E0F0
:102100000B98401C0B9000BF4BE00B9800782528E3
:1021100040D10B98401C0B900078642818D073288D
:1021200033D1019810C801900BE021783046FFF7B9
:10213000C0FF00BF80213046FFF7EEFE0028F9D037
:10214000641C20780028F0D10B98401C0B9020E0F4
:10215000019820C801900A2202A9284601F09EF8A1
:1021600002AC0BE021783046FFF7A3FF00BF8021CF
:102170003046FFF7D1FE0028F9D0641C20780028F3
:10218000F0D10B98401C0B9003E00B98401C0B9077
:1021900000BF06E00B9810F8011B0B903046FFF7CC
:1021A00088FF00BF80213046FFF7B6FE0028F9D037
:1021B0000B980078002887D106B070BC5DF814FB3E
:1021C00000BFFEE770B504460025002C05DB092C96
:1021D00003DC04F13000C5B20AE0092C05DD102C47
:1021E00003DA04F13700C5B202E002A000F014F8EF
:1021F000284670BD74686520696E707574207661BC
:102200006C7565206973206F7574206F662072612C
:102210006E67650A000000000FB4054B10B503A9F6
:10222000044A029800F0EEF810BC5DF814FB0000C0
:10223000712F00082C0000200FB4084B10B504A922
:1022400002AA039800F0DEF8044602A9002000F07C
:1022500070FC204610BC5DF814FB0000332B000816
:1022600002E008C8121F08C1002AFAD1704770475F
:10227000002001E001C1121F002AFBD170470000BD
:102280002DE9FF5F82B00021DDE90430020DDDF8A9
:1022900040B0034318D044F61050A2F2FF3242433C
:1022A0001514119801281FD0A5EB0B00401C5FEA04
:1022B000000A4FF000064E4FDFF83891B046504606
:1022C00015D5CAF1000413E0119801244AA301288E
:1022D00001D16FEA0B010298119AC0E90031C0E9FF
:1022E000024206B0BDE8F09FCBF10000DFE70446F4
:1022F0000021404A491842EB0450CDE9001012E099
:10230000E00707D032463B4640464946FEF7E3F831
:102310008046894632463B4610461946FEF7DBF8B2
:1023200006460F466410002CEAD1DDE90401DDE920
:102330000023BAF1000F06DAFEF7CDF842464B460D
:10234000FEF7C9F805E0FEF738F942464B46FEF7BE
:1023500034F904460E460022284BFEF741FA03D812
:102360004FF0FF30014607E00022254B2046314662
:10237000FEF70AF8FEF774FB102409E0002C0ADBD4
:102380000A220023FEF776FA039B30321A55641EA8
:1023900050EA0102F2D1641C039AC4F111031444FF
:1023A000119A012A03D0012208430DD10AE0084303
:1023B00004D000204FF0110B119072E7A3EB0B0536
:1023C0006D1E0DE05B4504DD4FF0000205F10105D7
:1023D00004E003DA4FF00002A5F10105002AECD079
:1023E00002981199C0E90231C0E9004579E700007F
:1023F000000014400000F03F300000000000F043F7
:102400000000E03F2DE9FF4F95B09B468946064608
:1024100000250FE2252877D100242746F84A01211C
:10242000059400E0044316F8013F203B01FA03F055
:102430001042F7D130782A2811D06FF02F0330786E
:10244000A0F13002092A16D8059A44F0020402EBE2
:10245000820203EB42021044761C0590EFE759F824
:10246000042B0592002A03DA504244F400540590EC
:1024700044F00204761C30782E2816D116F8010F8D
:1024800044F004042A280DD06FF02F023078A0F118
:102490003003092B09D807EB870302EB4303C71866
:1024A000761CF3E759F8047B761C30786C280FD043
:1024B00006DC4C2817D068280DD06A2814D104E017
:1024C000742810D07A280FD10DE044F400140AE0EB
:1024D00044F4801401E044F440147278824202D142
:1024E00004F58014761C761C307866280BD013DC3B
:1024F000582877D009DC002875D04528F6D0462822
:10250000F4D047281AD19DE118E0632835D064281B
:1025100079D0652812D195E1702873D008DC67283E
:10252000F1D069286FD06E280DD06F2806D1B5E0A4
:1025300073282CD0752875D0782874D05A461799EE
:1025400090476D1C75E1C4F30250022809D003289E
:102550000DD0D9F8001004280DD00D6009F1040940
:1025600067E1D9F80010EA17C1E90052F6E7D9F897
:1025700000100D80F2E70D70F0E719F8041B8DF8DC
:10258000001000208DF80100EA46012003E059F810
:1025900004AB4FF0FF3061074FF0000102D40DE0B3
:1025A00008F101018846B9420FDA8045F8DB1AF8D4
:1025B00008100029F4D108E008F1010188468142A1
:1025C000FADB1AF808100029F6D105985B46A0EB53
:1025D000080721463846179A00F094FA284400EB81
:1025E000080507E04DE029E10DE01AF8010B5A4615
:1025F00017999047B8F10108F7D25B462146384653
:10260000179A13E142E00A220092C4F302524FF0FB
:10261000000A022A08D059F804CB032A4FEAEC71C9
:102620000AD00DE029E02AE009F1070121F00702B4
:10263000F2E802C1914609E00FFA8CFC4FEAEC7116
:10264000042A03D14FFA8CFC4FEAEC71002907DA17
:102650000A460021DCF1000C61EB02012D2202E0B0
:10266000220504D52B228DF80420012203E0E20785
:1026700001D02022F7E7904659E00A2102E010221B
:102680000DE010214FF0000A00910BE010224FF0F6
:10269000000A44F004040827009203E008224FF0E7
:1026A000000A0092C4F30252022A05D059F804CB62
:1026B0000021032A08D009E009F1070121F00702EF
:1026C000F2E802C1914605E01FFA8CFC042A01D110
:1026D0000CF0FF0C4FF00008220728D5702806D018
:1026E000009B83F0100353EA0A0305D00EE040225A
:1026F0008DF80420012208E05CEA010206D03022B5
:102700008DF804208DF8050002229046009B83F08E
:10271000080353EA0A030AD15CEA010201D1620705
:1027200005D530228DF804204FF001087F1E58286F
:1027300004D034A003900EA802900DE036A0F9E773
:1027400053466046009AFEF795F884460398825CEB
:102750000298401E029002705CEA0100F0D10298DB
:1027600006A9081A00F1200A600702D524F4803473
:1027700000E00127574502DDA7EB0A0000E000203A
:1027800000EB0A01009005984144401A0590E003CF
:1027900006D45B462146179A059800F0B3F9054424
:1027A000002706E001A85A46C05D179990476D1CA6
:1027B0007F1C4745F6DBE0030CD55B462146179AA4
:1027C000059800F09FF9054404E030205A46179917
:1027D00090476D1C0099481E00900029F5DC08E028
:1027E000029802995A460078491C0291179990471D
:1027F0006D1CBAF10001AAF1010AF1DC65E10000EB
:1028000009280100303132333435363738396162C6
:10281000636465660000000030313233343536378A
:1028200038394142434445460000000000F058F961
:102830000544761C307800287FF4ECAD19B02846AA
:10284000BDE8F08F620700D4062709F1070222F0E5
:10285000070CFCE80223E14603F000485FEA080C9D
:1028600002D00FF2702C0DE05FEA045C02D50FF28B
:10287000682C07E05FEAC47C02D00FF2602C01E014
:10288000AFF2700C4FF0FF3823F00043CDF850C08A
:1028900065280CD006DC452809D046281DD04728DD
:1028A0003DD13DE0662818D067287ED138E0002170
:1028B000112F01DB112000E0781CCDE9000106A9F1
:1028C0000EA8FFF7DDFCDDE90F010E9A0391002150
:1028D000009207F1010A04914DE04FF0004000978B
:1028E000CDE9011006A90EA8FFF7CAFCDDE90F0229
:1028F00003920E9B11990022DDF80CA00093049224
:1029000011B9791C00EB010AB7EB0A0004D4C0F13D
:10291000FF3007F1010A0490AAEB0700019044E0A0
:10292000012F00DA01270021112F01DD112000E025
:102930003846CDE9000106A90EA8FFF7A1FCDDE9A4
:102940000F010E9A0391002104910092BA462107CB
:102950000CD40399514500DA8A46BAF1010F05DD1E
:10296000009AAAF10101515C302908D0B84202DA7C
:1029700010F1040F06DA0121CDE9011015E0AAF1EA
:102980000101E9E7002805DC049901440491AAEB60
:10299000000102E0411C514500DD8A460499401ABD
:1029A000401C01904FF000400290200704D4019891
:1029B000504501DBCDF8048000208DF84F000298CF
:1029C0000DF14F07B0F1004F25D02B200E9002984B
:1029D0004FF0020800280CDA404202902D200E90A1
:1029E00007E00A210298FDF72FFF3031029007F827
:1029F000011DB8F10001A8F10108F2DC02980028DD
:102A0000EFD1791E0E980870307800F0200040F069
:102A1000450007F8020D12A8C01B00F10708149822
:102A2000007800B1012000EB0A01019801EBE07190
:102A300005984144401A401E0590E00306D45B46C9
:102A40002146179A059800F05DF80544149800781F
:102A500018B15A46179990476D1CE00324D55B4680
:102A60002146179A059800F04DF805441CE004989B
:102A7000002807DBDDE90301884203DD0098405CA4
:102A8000179901E0179930205A469047049805F1AC
:102A90000105401C04900198401E019004D12E2095
:102AA0005A46179990476D1CBAF10001AAF1010A24
:102AB000DDDC05E017F8010B5A46179990476D1CAD
:102AC000B8F10001A8F10108F4DC5B462146179A31
:102AD0000598ABE62D0000002B0000002000000050
:102AE0002DE9F041044600251E461746880404D40B
:102AF00005E039462020B0476D1C641EF9D52846F4
:102B0000BDE8F0812DE9F041044600251E469046BF
:102B1000C80301D5302700E02027880404D505E04C
:102B200041463846B0476D1C641EF9D52846BDE8BD
:102B3000F0810A68531C0B601070704710B50024B8
:102B40000FE0C82300220AA10AA0FEF707FB08B184
:102B5000012010BD601CC4B2611E224606A0FFF712
:102B60005BFB0A2CEDDB10A0FFF756FB0020F0E723
:102B70004F4B0000415400000D0A204154D6B8C10B
:102B8000EEB5DA2564B4CEB2E2CAD4CAA7B0DC2C62
:102B9000D5FDD4DABDF8D0D0B5DA2564B4CED6D818
:102BA000CAD42E2E0D0A00000D0A204154B2E2CAEA
:102BB000D4CAA7B0DC21210D0A00000010B5FEF731
:102BC00049FB10BD10B51AA0FFF726FBFEF7A8FBC6
:102BD00000282BD0FFF7B2FF002827D04FF4FA735C
:102BE00000221AA11AA0FEF7B9FAF8B14FF4FA734D
:102BF000002216A117A0FEF7B1FAB8B14FF4FA738C
:102C0000002212A116A0FEF7A9FA78B14FF4FA73C8
:102C100000220EA114A0FEF7A1FA38B100F094FA38
:102C200020B100F04FFA08B1012010BD0020FCE7F0
:102C30000D0AD5FDD4DAC5E4D6C320424332302094
:102C40002E2E2E2E2E2E0D0A000000004F4B0000BF
:102C50004154490041542B4347534E3D310000003D
:102C600041542B43494D490041542B4350494E3F59
:102C70000000000070B505460E46AC6806B970BD90
:102C80000CB9AE6009E000E0246814B120680028A7
:102C9000FAD13146204601F089F900BFEFE7000084
:102CA00070B506460D46144604B970BD206A18B1C9
:102CB0000649206A09688847284600F079F82062AA
:102CC00021463046FFF7D6FF00BFEEE72800002080
:102CD00070B505460E4600F051F8044644B1032095
:102CE000E060C4E9065628463146FDF715FD6061EF
:102CF000204670BD10B500F041F804460CB1062026
:102D0000E060204610BD70B5054600F037F8044677
:102D10002CB10420E060284600F04AF820612046EB
:102D200070BD000070B5044622E02568A08900F45B
:102D3000807020B9A06810B1A068FFF7F3FFA089E8
:102D400000F4807028B9206918B10B49206909681E
:102D50008847A08900F4007028B9206A18B1064994
:102D6000206A0968884720460349096888472C4635
:102D7000002CDAD170BD00002800002010B52820FA
:102D800005490968884704461CB128212046FDF7FB
:102D9000E2F9204610BD00002400002010B50446D2
:102DA000002301221946204601F068F810BD0000FA
:102DB00070B504462046FDF701FA451C2846064931
:102DC00009688847061E00D170BD2A462146304654
:102DD000FDF7A8F93046F7E72400002000B50346C8
:102DE00003E04FF47A7000F006F8181EA3F1010119
:102DF0008BB2F6D100BD00EBC001C9004FF0E0225C
:102E00005161002191610521116100BF4FF0E02166
:102E1000096901F480310029F8D004214FF0E02243
:102E2000116170472DE9F04104460E460CB120684F
:102E300010B90020BDE8F081A06806446068B04287
:102E400003DBA16820680844F4E7304600F016FB75
:102E5000074638460D490968884705463DB90C497B
:102E6000206809688847002060602060E2E725B19B
:102E70002846D4E90012FDF755F90549206809688C
:102E8000884767602560A0682844D3E724000020B5
:102E9000280000202DE9F041C1F30A52A2F2FF36CA
:102EA0002F4A304B0D460446142E2FDA002E12DA2C
:102EB000FDF76AFA00221346FDF792FC4CD2002D72
:102EC000A4BF0024254647DA25F00040204318BF60
:102ED000254D41D018E0DFF894C02CFA06F705EA3A
:102EE000070C5CEA040C08BFBDE8F081FDF74CFA62
:102EF00000221346FDF774FC2ED2002D03DA4FF4A6
:102F00008010F0400544BD43002425E0332EC8BFA7
:102F1000BDE8F081A6F1140C4FF0FF3727FA0CF74B
:102F20003C4208BFBDE8F081FDF7D2FA002213460B
:102F3000FDF756FC10D2002D0DDA142E08BF6D1CC3
:102F400009D0C6F13400012101FA00F02044A0426A
:102F500038BF6D1C0446BC4329462046BDE8F081BD
:102F60009C7500883CE4377E0000F0BFFFFF0F0037
:102F700070B504460D46E1B20548FFF79AF800BF68
:102F800080210348FEF7C8FF0028F9D0204670BD15
:102F90000038014010B5002821D0114B0022001F3D
:102FA000196803E0814203D80A4649680029F9D12B
:102FB00052B11368841A9C4204D10068184410600E
:102FC000104602E0506000E0186039B102680B1A48
:102FD000934203D10B681A4402604968416010BDF6
:102FE0003000002070B58AB004461CA003901CA0DD
:102FF000049000200290019000BF01A902A8FEF7F2
:103000005EF80028F9D19DF80400FDF74EFB05900D
:103010009DF80800FDF749FB0690FEF735FA0646D5
:10302000FDF743FB05461049FDF770F90790322084
:10303000089000F01DF8099002E000F019F80990DE
:103040000AA10998FDF7C1F80028F6D01C2203A9AF
:103050002046FDF767F80AB070BD0000303031003F
:1030600054657374310000000000C842302E3000F7
:1030700010B54FF4FA73002206A107A0FEF76EF810
:103080000BA10E48FDF77EF80D490860FEF75AFACD
:1030900010BD00004F4B000041542B51474E53537D
:1030A00052443D224E4D45412F524D4322000000D7
:1030B0002B51474E535352443A000000140600204F
:1030C0001800002070B500240CE04FF4FA730022C1
:1030D00010A111A0FEF742F84FF4FA70FFF77EFE40
:1030E000601CC4B24FF4FA7300220AA10DA0FEF7CF
:1030F00035F808B90A2CE8DD0A2C02DD0CA0FFF730
:103100008BF80FA10F48FDF73DF8851C2878303863
:10311000C0B270BD4F4B000041542B434741545443
:103120003D31000041542B43474154543F000000BF
:103130000D0A2020D7A2CDF8CAA7B0DC2E0D0A00B8
:103140003A2000001406002070B54FF4FA730022F4
:103150000BA10CA0FEF702F80CA10D48FDF712F828
:10316000841C607830382178303901EB810100EB24
:103170004100C5B2632D01DA284670BD0020FCE78E
:103180004F4B000041542B43455351003A2000005F
:10319000140600202DE9F0470446FFF7ABFD8146F9
:1031A000FFF7A8FD8046E068FDF7EEFA0646FFF758
:1031B0008FFD8246524629A14046FFF771FDA06867
:1031C000FDF7E2FA0646FFF783FD8246524625A147
:1031D0004046FFF765FDA069FFF795FD06463246BC
:1031E00022A14046FFF75CFD2069FDF7CDFA0646B7
:1031F000FFF76EFD824652461EA14046FFF750FD86
:103200006069FDF757FA0646FFF762FD82465246AF
:1032100019A14046FFF744FD2068FFF774FD0646FC
:10322000324617A14846FFF73BFD6068FFF76BFD8C
:103230000646324614A14846FFF732FD424615A124
:103240004846FFF72DFD4846FFF7A8FD05464846CE
:10325000FFF768FD2846BDE8F087000054656D70F3
:103260000000000048756D69000000004C6F63614C
:1032700000000000434834004C6967687400000097
:10328000555345525F494400555345525F4E414D99
:1032900045000000446174614F626A00F0B5034666
:1032A0000D461646002729460A2E03D00020087036
:1032B0002846F0BD33B9302001F8010B002008701A
:1032C0002846F6E7002B03DA2D2001F8010B5B42BC
:1032D00042F210720DE093FBF2F404B937B104F13D
:1032E000300001F8010B04FB123301270A2092FB86
:1032F000F0F2002AEFDC002008702846D9E7FDF73D
:10330000B9FD00BFFEE70000F0B50B30154D20F011
:1033100007010024144A0FE003688B420BD38B4251
:1033200005D95E1A43184768C3E9006700E043689F
:10333000136002C004E0021D10680028ECD1204692
:10334000002802D1286808B10020F0BD064A0748CD
:103350001060074A121A22F00702C0E90024012077
:103360002860D7E734000020300000209C0A0020AD
:10337000981A0020F0B5ADF6040D04464FF4006134
:1033800001A8FCF7E8FE8020FFF7BEFF064680217B
:103390003046FCF7E0FE2046FCF710FF07463A46B1
:1033A00015A13046FEF748FF14A101A8FCF7DEFE88
:1033B0001BA101A8FCF7DAFE20A101A8FCF7D6FEAC
:1033C00026A101A8FCF7D2FE314601A8FCF7CEFEEB
:1033D00027A101A8FCF7CAFE214601A8FCF7C6FEFA
:1033E00024A101A8FCF7C2FE3046FFF7D3FD01ADD2
:1033F00028460DF6040DF0BD25640000504F5354CF
:10340000202F4D7950726F6A656374332F506F733C
:10341000744461746120485454502F312E310A0095
:10342000486F73743A2034372E3130312E313538AD
:103430002E3231383A38300A00000000436F6E7483
:10344000656E742D547970653A206170706C696393
:103450006174696F6E2F6A736F6E0A00436F6E74CA
:10346000656E742D4C656E6774683A20000000002C
:103470000A0A00000D0A0D0A000000000146491E5C
:1034800041EA610141EAA10141EA211141EA212118
:1034900041EA2141481C70472DE9FF4F85B0924613
:1034A0001E464FF0000B052003900598D0F80880C9
:1034B000D946002500200290019003E009F101099E
:1034C000D8F80080B8F1000FF8D1B9F1000F16D18B
:1034D0002EB103213046FFF7A5FC834604E003200C
:1034E0007E49096888478346BBF1000F03D07CA161
:1034F0005846FCF778FE584609B0BDE8F08F002E1C
:1035000057D0B56801213046FFF78CFC04460CB952
:103510000020F1E75B202070B068401CB060059887
:10352000D0F808802EE0334652460699491C4046A2
:1035300000F0A4FC304600F03CFDB060D8F800007C
:10354000F0B1BAF1000F01D0022000E00120039099
:103550000399491C3046FFF765FC04460CB900206E
:10356000CAE72C2004F8010BBAF1000F02D020208A
:1035700004F8010B00202070B16803980844B06083
:10358000D8F80080B8F1000F02D002980028CAD005
:1035900002213046FFF746FC04460CB90020ABE799
:1035A0005D2004F8010B00202070306800EB050B53
:1035B00091E04FEA890049490968884707460FB9F1
:1035C000002099E74FEA89013846FCF7C4FD0598C9
:1035D000D0F8088021E0002352460699491C404655
:1035E00000F04CFC049029466D1C049847F821001B
:1035F000049870B10498FCF7E1FD801CBAF1000F4B
:1036000001D0012100E00021014403980844039007
:1036100001E001200290D8F80080B8F1000F02D03C
:1036200002980028D7D0029820B92C49039809683D
:1036300088478346BBF1000F01D101200290029818
:1036400090B1002508E057F8250020B157F8250073
:103650002449096888476D1C4D45F4DB38462149EB
:1036600009688847002047E75B208BF800000BF1D2
:10367000010400202070002521E057F82500FCF708
:103680009DFD019057F825102046019AFCF74AFD50
:1036900001980444A9F10100A8420AD02C2004F8A2
:1036A000010BBAF1000F02D0202004F8010B00201A
:1036B000207057F825000B49096888476D1C4D4557
:1036C000DBDB38460749096888475D2004F8010BB1
:1036D000002004F8010B58460EE7000024000020EB
:1036E0005B5D0000280000202DE9FC4782460E4665
:1036F0004FF00009DAE90645002213462046294624
:10370000FDF756F813D12EB102213046FFF78AFBA0
:10371000814604E002204A49096888478146B9F198
:10372000000F03D047A00088A9F8000084E0DAF871
:103730001400FCF7BFFF074622462B46FCF7C5FEE8
:1037400021F000410022404BCDE90001FDF730F8A7
:1037500023D83E4A3E4B20462946FDF729F81CD87F
:1037600000223C4B20462946FDF73AF815D82EB1E9
:1037700015213046FFF756FB814604E015203049FD
:10378000096888478146B9F1000F55D032A14846F3
:10379000DAF81420FEF750FD4EE02EB140213046FD
:1037A000FFF740FB814604E040202549096888472F
:1037B0008146B9F1000F3FD020462946FFF76AFB4A
:1037C000074622462B46FCF780FE21F000410022EE
:1037D0001D4BCDE90001FCF7EBFF0FD825F00041B0
:1037E00027461E4A1E4B3846FCF7E2FF06D2224609
:1037F0002B461CA14846FEF71FFD1DE025F00041A9
:1038000027461A4A1A4B3846FCF7D2FF07D325F051
:1038100000410022174B3846FCF7E2FF06D2224651
:103820002B4615A14846FEF707FD05E022462B462C
:1038300012A14846FEF700FD4846BDE8FC8700009F
:1038400024000020300000000000B03C0000C0FF59
:10385000FFFFDF410000E0C12564000044F3C2E443
:10386000E4E9634C252E3066000000008DEDB5A024
:10387000F7C6B03E65CDCD41256500002566000048
:103880002DE9FF4F89B0884616461F460020089054
:10389000079006904FF0070A00250998D0F8089085
:1038A000002002900190009004E00298401C0290D9
:1038B000D9F80090B9F1000FF7D10298002835D15E
:1038C00057B116B108F1040000E003200146384664
:1038D000FFF7A8FA069009E016B108F1040100E02C
:1038E00003210846EA49096888470690069818B9EE
:1038F00000200DB0BDE8F08F069C7B2004F8010B82
:1039000066B10A2004F8010B002503E0092004F841
:10391000010B6D1CA8F10100A842F7DC7D2004F822
:10392000010B002004F8010B0698E2E7002F77D086
:10393000BD680EB1022000E0012082460AF10101BB
:103940003846FFF76FFA04460CB90020D1E77B2018
:1039500004F8010B16B10A2004F8010B00202070B6
:10396000B8685044B8600998D0F8089008F1010888
:1039700068E0B6B141463846FFF754FA04460CB940
:103980000020B6E70020039005E0092004F8010BB1
:103990000398401C039003984045F6DBB868404408
:1039A000B8603946D9F8200000F07EF9384600F0BA
:1039B00000FBB8600EB1022000E0012082465146B3
:1039C0003846FFF72FFA04460CB9002091E73A2059
:1039D00004F8010B16B1092004F8010BB868504433
:1039E000B8603B4632464146484600F047FA384602
:1039F00000F0DFFAB8600EB1012000E00020D9F835
:103A0000001009B1012100E0002100EB010A0AF1D8
:103A100001013846FFF706FA044614B9002068E7AA
:103A200034E0D9F8000010B12C2004F8010B16B1D5
:103A30000A2004F8010B00202070B8685044B860D8
:103A4000D9F80090B9F1000F93D116B108F1010037
:103A500000E0022001463846FFF7E4F904460CB9BD
:103A6000002046E74EB1002503E0092004F8010BD1
:103A70006D1CA8F10100A842F7DC7D2004F8010BC1
:103A800000202070386828440690FEE002998800E3
:103A90007F49096888470890089808B9002028E7F6
:103AA000029988007A49096888470790079828B9D9
:103AB000784908980968884700201AE70298810029
:103AC0000898FCF748FB029881000798FCF743FB35
:103AD0000998D0F8089008F1010806B1C2442EE018
:103AE0000021D9F8200000F0DFF80490079941F890
:103AF0002500002332464146484600F0BFF92946DA
:103B00006D1C0590089A42F82100049898B1059818
:103B100088B10598FCF752FB83460498FCF74EFBEE
:103B20000BEB0001891C16B108F1020000E0002037
:103B30000844824401E001200190D9F80090B9F1D5
:103B4000000FCDD1019820B95046514909688847E6
:103B50000690069808B901200190019818B3002535
:103B600014E0079850F8250028B1079951F825006E
:103B7000484909688847089850F8250028B10899ED
:103B800051F825004349096888476D1C0298854211
:103B9000E7DB40490798096888473E490898096863
:103BA00088470020A5E67B21069801700698441CF2
:103BB00016B10A2004F8010B00202070002548E00F
:103BC0005EB10020039005E0092004F8010B039882
:103BD000401C039003984045F6DB079951F82500F7
:103BE000FCF7ECFA0090079850F825102046009A50
:103BF000FCF798FA009804443A2004F8010B16B137
:103C0000092004F8010B089850F825102046FCF70D
:103C1000EAFA089951F82500FCF7D0FA0444029812
:103C2000401EA84202D02C2004F8010B16B10A2035
:103C300004F8010B00202070079951F82500154960
:103C400009688847089951F825001249096888478A
:103C50006D1C02988542B3DB0E49079809688847B6
:103C60000C490898096888474EB1002503E00920EF
:103C700004F8010B6D1CA8F10100A842F7DC7D20BF
:103C800004F8010B002004F8010B069831E600004F
:103C9000240000202800002070B504460D46294667
:103CA000206900F001F870BD2DE9F05F804689467B
:103CB0000027BB46454611E02878002802DD287819
:103CC000202805DB2878222802D028785C2801D11A
:103CD000012000E0002040EA0B0B6D1C2878002832
:103CE000EAD1BBF1000F22D1A5EB0807B9F1000F13
:103CF00005D0F91C4846FFF795F8064604E0F81C85
:103D0000584909688847064616B90020BDE8F09F63
:103D10003446222004F8010B41462046FCF763FAA2
:103D20002220E0550021781C21543046EEE7B8F1FE
:103D3000000F16D1B9F1000F05D003214846FFF757
:103D400071F8064604E0032046490968884706469C
:103D50000EB90020DAE744A13046FCF744FA3046B9
:103D6000D4E745460BE0514640A0FCF71DFA08B1E8
:103D70007F1C03E0BAF1200F00DA7F1D6D1C95F85F
:103D800000A0BAF1000F02D0781C071EEBD1B9F1E8
:103D9000000F05D0F91C4846FFF744F8064604E03A
:103DA000F81C30490968884706460EB90020ADE77F
:103DB00034464546222004F8010B47E028781F28A6
:103DC0000ADD2878222807D028785C2804D015F846
:103DD000010B04F8010B39E05C2004F8010B15F825
:103DE000011B8A460C2919D006DC082912D00929A2
:103DF00020D00A2922D115E00D2917D0222905D07B
:103E00005C291BD15C2004F8010B1EE0222004F881
:103E1000010B1AE0622004F8010B16E0662004F89A
:103E2000010B12E06E2004F8010B0EE0722004F882
:103E3000010B0AE0742004F8010B06E052460DA1C4
:103E40002046FEF7F9F9641D00BF00BF287800285E
:103E5000B4D1222004F8010B002004F8010B3046F5
:103E600054E700002400002022220000225C080CFD
:103E70000A0D090075253034780000002DE9F04165
:103E800004460F4690461D46002614B90020BDE8A2
:103E9000F081002D46D0207B072842D2DFE800F0D9
:103EA0000F1A04252B31390005212846FEF7BAFFE9
:103EB00006461EB137A13046FCF795F931E00621E0
:103EC0002846FEF7AFFF06461EB134A13046FCF788
:103ED0008AF926E005212846FEF7A4FF06461EB112
:103EE00030A13046FCF77FF91BE029462046FFF75A
:103EF000FBFB064615E029462046FFF7CDFE0646A9
:103F00000FE02B46424639462046FFF7C5FA0646E3
:103F100007E02B46424639462046FFF7B1FC0646ED
:103F200000BF34E0207B072830D2DFE800F0090E24
:103F30000413191F270017A0FEF73AFF064625E0D5
:103F400016A0FEF735FF064620E016A0FEF730FF6C
:103F500006461BE000212046FFF7C6FB064615E09B
:103F600000212046FFF798FE06460FE00023424658
:103F700039462046FFF790FA064607E000234246FE
:103F800039462046FFF77CFC064600BF00BF30469E
:103F90007DE700006E756C6C0000000066616C735C
:103FA00065000000747275650000000001604860E3
:103FB000704770B504460CB1206808B9002070BD88
:103FC000A168206845182846FCF7F8F8A16808445D
:103FD000F5E70000F43F0008000000203800000072
:103FE000602200082C40000838000020601E0000FD
:103FF0007022000800000000010203040102030413
:10400000060708090204060800000000000000007E
:10401000000000000000000009330008952F000890
:0C40200000000000000000000000000094
:04000005080000ED02
:00000001FF
